:060000000200D4020160C1
:03000B0002022FBF
:10001B0002001EC0E0C083C082C0D075D000C000FB
:10002B00C004C005C006C007E50F6401450E702E65
:10003B00AF4DEF25E02410F8E6F54608E6F547EF5F
:10004B0025E0242CF8E6F54A08E6F54B054DE54D81
:10005B007002054C640C454C7004F54CF54DE52BCA
:10006B006401452A7050E54F25E0FFE54E33FE74E1
:10007B00832FF58274023EF583E493FC740193FDA8
:10008B008C46F54774C52FF58274023EF583E493D5
:10009B00FE7401938E4AF54B8C468D478E4AF54B79
:1000AB00054FE54F7002054E6420454E7008F52A4A
:1000BB00F52BF54EF54FD007D006D005D004D00068
:1000CB00D0D0D082D083D0E032787FE4F6D8FD75E3
:1000DB00815302011B020272E493A3F8E493A34041
:1000EB0003F68001F208DFF48029E493A3F85407A8
:1000FB00240CC8C333C4540F4420C8834004F456A3
:10010B00800146F6DFE4800B0102040810204080DA
:10011B009001CEE47E019360BCA3FF543F30E50910
:10012B00541FFEE493A360010ECF54C025E060A8DA
:10013B0040B8E493A3FAE493A3F8E493A3C8C5826D
:10014B00C8CAC583CAF0A3C8C582C8CAC583CADFDB
:10015B00E9DEE780BEC0E0C0D020B20A0549E54920
:10016B0070F7054880F3C3E5499464E548648094CF
:10017B00805011E52B452A7005F52A752B01754822
:10018B0000754900D3E5499464E548648094804048
:10019B002DE50F450E7005F50C750D01E50F64018E
:1001AB00450E7014F50CF50DF50EF50FF546F547EC
:1001BB00F54AF54BF54CF54D754800754900D0D017
:1001CB00D0E03202500000024C0000024E00000250
:1001DB00520000020A000002080000020C0000029C
:1001EB000E0000022A0000024800001A10002A002C
:1001FB006E001500300079005400000071003000D3
:10020B00380078005000001A2C0000002A006E0005
:10021B0015003000790054000000710030003800E8
:10022B0078005000C0E0E50D6401450C70080553E3
:10023B00E55370020552E55364504552700DF50EAF
:10024B00750F01F50CF50DF552F553D0E032D2A830
:10025B00D288D2AAD28AD2A9D28C758901D2ABD23A
:10026B008E758910D2AF2212025990FD00E547F02E
:10027B0090FE00E54BF080F20000006F007F00075E
:10028B00007D006D0066004F005B0006003F006FB5
:10029B00007F0007007D006D0066004F005B0006CD
:1002AB00003F006F007F0007007D006D0066004F70
:1002BB00005B0006003F0000003F004F005B005B4F
:1002CB00005B005B005B005B005B005B005B005B4B
:1002DB0000060006000600060006000600060006E3
:1002EB0000060006000000000000000000000000F7
:0C02FB0000000000000000000000003FB8
:00000001FF
