:10000000020326E47F03FEFDFCAB15AA14A913A886
:1000100012C312040C7008F515F514F513F512E56A
:100020000D6401450C701AE50F6402450E7012E56F
:100030001164034510700A120468F51875190180DF
:100040001FE50D6404450C701CE50F6405450E703A
:1000500014E51164064510700C12046BF518F519BF
:10006000F508F50922E50D6407450C7023E50F64DA
:1000700008450E701BE5116409451070137F3C1292
:100080000465F508F509E5196401451870388026FE
:10009000E50D640A450C7040E50F450E703AE51118
:1000A000640B45107032FF120465F508F509E51977
:1000B000640145187010F50C750D01F50E750F02F1
:1000C000F51075110322750C00750D04750E007581
:1000D0000F0575100075110622C2A3D2A2D2A1206D
:1000E000A43130A4FDAF15AE14AD13AC12EF25E072
:1000F000240CF87600087601E4FAF9F8EF2401F50B
:1001000015EA3EF514E93DF513E83CF512750A00D1
:10011000750B0120A53130A5FDAF15AE14AD13ACA4
:1001200012EF25E0240CF87600087604E4FAF9F8DA
:10013000EF2401F515EA3EF514E93DF513E83CF529
:1001400012750A00750B0120A63130A6FDAF15AE61
:1001500014AD13AC12EF25E0240CF87600087607F6
:10016000E4FAF9F8EF2401F515EA3EF514E93DF556
:1001700013E83CF512750A00750B0120A72B30A778
:10018000FDAF15AE14AD13AC12EF25E0240CF876DC
:100190000008760AE4FAF9F8EF2401F515EA3EF5CD
:1001A00014E93DF513E83CF51222D2A3D2A2C2A174
:1001B00020A42B30A4FDAF15AE14AD13AC12EF2567
:1001C000E0240CF87600087603E4FAF9F8EF24014D
:1001D000F515EA3EF514E93DF513E83CF51220A5C6
:1001E0002B30A5FDAF15AE14AD13AC12EF25E024F6
:1001F0000CF87600087606E4FAF9F8EF2401F51514
:10020000EA3EF514E93DF513E83CF51220A62B3043
:10021000A6FDAF15AE14AD13AC12EF25E0240CF81B
:100220007600087609E4FAF9F8EF2401F515EA3EBC
:10023000F514E93DF513E83CF51220A72B30A7FD96
:10024000AF15AE14AD13AC12EF25E0240CF8760018
:1002500008760BE4FAF9F8EF2401F515EA3EF514F7
:10026000E93DF513E83CF51222D2A3C2A2D2A120A7
:10027000A42B30A4FDAF15AE14AD13AC12EF25E0E6
:10028000240CF87600087602E4FAF9F8EF2401F578
:1002900015EA3EF514E93DF513E83CF51220A52BCF
:1002A00030A5FDAF15AE14AD13AC12EF25E0240C54
:1002B000F87600087605E4FAF9F8EF2401F515EA76
:1002C0003EF514E93DF513E83CF51220A62B30A6C7
:1002D000FDAF15AE14AD13AC12EF25E0240CF8768B
:1002E00000087608E4FAF9F8EF2401F515EA3EF57E
:1002F00014E93DF513E83CF51220A72930A7FDAF1E
:1003000015AE14AD13AC12EF25E0240CF8E4F6089A
:10031000F6FAF9F8EF2401F515EA3EF514E93DF592
:1003200013E83CF51222787FE4F6D8FD75811B02B4
:10033000036D020454E493A3F8E493A34003F6800E
:1003400001F208DFF48029E493A3F85407240CC8D1
:10035000C333C4540F4420C8834004F4568001467C
:10036000F6DFE4800B010204081020408090042294
:10037000E47E019360BCA3FF543F30E509541FFEA7
:10038000E493A360010ECF54C025E060A840B8E418
:1003900093A3FAE493A3F8E493A3C8C582C8CAC59B
:1003A00083CAF0A3C8C582C8CAC583CADFE9DEE72D
:1003B00080BE8E1A8F1BE4F515F514F513F512AEF9
:1003C0001AAF1B7C017DF41203FAEE3395E0FDFCBD
:1003D000AB15AA14A913A812C312040C501BE4FAFB
:1003E000F9F8E5152401F515EA3514F514E9351386
:1003F000F513E83512F51280C622EF8DF0A4A8F0AF
:10040000CF8CF0A428CE8DF0A42EFE22EB9FF5F029
:10041000EA9E42F0E99D42F0EC6480C86480984511
:10042000F022041200000000060C00040005000683
:100430000208000002180000020A00000075CDFF4B
:1004400075CBFF75CCDC75CADC75C830759840D2A9
:10045000CAD2B42212043D1200D91202691201AAB2
:0E04600012000380F28F9922C28022D28022E5
:00000001FF
