:100000000204BA8B148A1589167D0112076D1DAB87
:10001000140516E516AA15700205151208150DBD72
:1000200010ED22020807EC4D6011E8497017ED331E
:10003000EC3304600DE4FCFFFEFD22E933E83304F9
:1000400070F802020C1201D758046009E4CC248134
:100050005006285009020216284003020213C0E08D
:10006000EB4A7044B98006D0E0FB020202EF4E700A
:100070001CBD8008EBFFEAFEE9FD80EBE98DF0A4F2
:10008000FEE5F002010FE9CDF9EAFEEBFFEF89F0A2
:10009000A4FCE5F0CE89F0A42EFFE435F0CD89F084
:1000A000A42DFEE435F08067EF4E7005BD80D7804B
:1000B000C3EF8BF0A4ACF0EE8BF0A42CFCE435F095
:1000C000F8EF8AF0A42CE5F038FCE433CB8DF0A4F3
:1000D0002CFCE5F03BF8EE8AF0A42CFCE5F038F8B7
:1000E000E433CF89F0A42CFCE5F038CF3400CE897E
:1000F000F0A42FFFE5F03EFEE433C98DF0A42EFE00
:10010000E5F039CD8AF0A42FFFE5F03EFEE43DFD99
:1001100033D0E0FB50070BBB000F020216EC2CFCA7
:10012000EF33FFEE33FEED33FD0201EE74F8CC64E5
:1001300080CCC86480C8F582046043C3EB9FF5F0AF
:10014000EA9E42F0E99D42F0E89C45F0603050188C
:10015000E5825FFFE582F42B5582FB50210ABA004D
:100160001D09B90019088016E5825BFBE582F42FB2
:100170005582FF50090EBE00050DBD00010CC3EBFA
:100180009FF5F0EA9E42F0E99D42F0E89C45F06060
:1001900007CC4820E701B3EC2275F020800E75F003
:1001A00010800575F0087D007E007F003392D53009
:1001B000D50312023AEC334010EF33FFEE33FEED7D
:1001C00033FDEC33FCD5F0ED22E5F0247EA2D5130F
:1001D000CC92E7CDCEFF22E9D2E7C933E833F892DB
:1001E000D5EDD2E7CD33EC33FC5002B2D522EC3062
:1001F000E7100FBF000C0EBE00080DBD00040BEB96
:100200006014A2D5EB13FCED92E7FD2274FFFCFD18
:10021000FEFF22E480F8A2D574FF13FC7D80E48009
:10022000EFBB010689828A83E0225002E722BBFEEF
:1002300002E32289828A83E49322C3E49FFFE49E3F
:10024000FEE49DFDE49CFC22E50C450B700B7BFF5E
:100250007A0579467F01120003E50C6405450B70B1
:100260000B7BFF7A0579577F01120003E50C640AC6
:10027000450B700B7BFF7A0579687F01120003053F
:100280000CE50C7002050B640F450B7004F50BF5C3
:100290000CE590D394205004E590700E7BFF7A0516
:1002A00079797F021200030203C1E590D3940050D4
:1002B000030203C185900D7BFF7A05798A7F0212C4
:1002C0000003E59064016005E590B420057D01021E
:1002D00003B7E59064026005E590B41F057D020256
:1002E00003B7E59064036005E590B41E057D030245
:1002F00003B7E59064046005E590B41D057D040234
:1003000003B7E59064056005E590B41C057D050222
:1003100003B7E59064066005E590B41B057D060211
:1003200003B7E59064076005E590B41A057D070200
:1003300003B7E59064086005E590B419047D088072
:1003400076E59064096005E590B418047D0980673E
:10035000E590640A6005E590B417047D0A8058E5CD
:1003600090640B6005E590B416047D0B8049E59020
:10037000640C6005E590B415047D0C803AE590644A
:100380000D6005E590B414047D0D802BE590640E9E
:100390006005E590B413047D0E801CE590640F6049
:1003A00005E590B412047D0F800DE59064106005A2
:1003B000E590B4110C7D107F0312076D7F2B12089E
:1003C0001B7F007E007D007C3F1205C37BFF7A050A
:1003D00079A17F031200037BFF7A0579B27F0412B3
:1003E00000030202487F4012070612068E1206938F
:1003F0007F0C12069312068B1206937F4812070693
:10040000E4FF1206937F0E1206937F1F12069312CB
:1004100006837F50120706E4FF1206937F0F120631
:10042000937F1E1206937F1C1206937F1E12069363
:100430007F0F12068B7F58120706E4FF1206937F88
:100440000E1206937F1F1206937F151206937F1FCD
:100450001206937F1512068B7F60120706E4FF12C7
:1004600006937F0E1206937F1F1206937F151206C6
:10047000937F1F1206937F0A12068B7F681207066E
:10048000E4FF1206937F0A1206937F1B12067E7FFB
:100490007012070612068E12067E7F781207061269
:1004A000068E1206937F041206937F0E1206931295
:1004B0000693E4FF120693020693787FE4F6D8FDD4
:1004C0007581200205010207E1E493A3F8E493A3F8
:1004D0004003F68001F208DFF48029E493A3F85486
:1004E00007240CC8C333C4540F4420C8834004F409
:1004F00056800146F6DFE4800B010204081020401C
:10050000809007F8E47E019360BCA3FF543F30E580
:1005100009541FFEE493A360010ECF54C025E06090
:10052000A840B8E493A3FAE493A3F8E493A3C8C55E
:1005300082C8CAC583CAF0A3C8C582C8CAC583CA4F
:10054000DFE9DEE780BE4171756172697573203243
:100550003030305820200046696C74723A20417166
:1005600075612048353031004C45443A2050686967
:100570006C69707320333030004B41524D4E494B03
:100580002053544F5020202020004B41524D4E49C3
:100590004B20535441525420202020202020202042
:1005A000002D2D2D2D2D2D2D2D2D2D2D2D2D2D2DA8
:1005B0002D0020202020202020202020202020204E
:1005C0002020008F178E168D158C14E4F511F51070
:1005D000F50FF50EE4FFFE7D487C43AB17AA16A984
:1005E00015A814120026C004C005C006C007AF112C
:1005F000AE10AD0FAC0EEC120199A804A905AA0625
:10060000AB07D007D006D005D00412012C501BE454
:10061000FAF9F8E5112401F511EA3510F510E9357C
:100620000FF50FE8350EF50E80AA221207B275A05D
:1006300083D2A6120798C2A61207A5D2A6120798BF
:10064000C2A6120798D2A6120798C2A6120798C28D
:10065000A0D2A6120798C2A61207987F28120706F2
:100660007F011207067F081207067F0C1207067F1C
:10067000061207067F0F1207067F01020706120601
:10068000937F1F1206931206937F0E120693E4FFC8
:10069000120693D2A4C2A5EFC4540F53A0F042A0F7
:1006A000D2A6C2A6EF540F53A0F042A0D2A6C2A673
:1006B00043A00FD2A5C2A4D20130010ED2A6A2A39C
:1006C0009201C2A6D2A6C2A680EF228B188A1989EF
:1006D0001A7F01120003AB18E51A2410F9E435194A
:1006E000FA7F02120003AB18E51A2420F9E4351949
:1006F000FA7F03120003AB18E51A2430F9E4351928
:10070000FA7F04020003C2A4C2A5EFC4540F53A091
:10071000F042A0D2A6C2A6EF540F53A0F042A0D23E
:10072000A6C2A643A00FD2A5C2A4D20030000ED20A
:10073000A6A2A39200C2A6D2A6C2A680EF22D2A8E9
:10074000D288D2AAD28A758901758DFF758CFF7502
:10075000CDFF75CBFF75CCDC75CADC75C830D2AC6B
:10076000759850D2CAD2AFC2B4E4F59022AC07BC9F
:100770000107ED247FFF120706BC0207ED24BFFF2F
:10078000120706BC0307ED248FFF120706BC0407FF
:10079000ED24CFFF120706227509047508E0D5087D
:1007A000FDD509FA22750914750870D508FDD5091B
:1007B000FA227509C3750889D508FDD509FA228B77
:1007C0001B8A1C891D12076DAB1BAA1CA91D1202D6
:1007D00021600D051DE51D7002051C12081580E83D
:1007E0002212062B12073E7D017F0312076D7F0C3C
:1007F00012070612024880FB040E00000000020BE4
:1008000000000212000000309902C299309805855C
:100810009990C2983214F9120221FF0206937BFFCD
:100820007A0879270206CB202020202020202020B3
:10083000202020202020203D3D3D3D3D3D3D3D3DB3
:100840003D3D3D3D3D3D3D202020202020202020DD
:10085000202020202020203D3D3D3D3D3D3D3D3D93
:080860003D3D3D3D3D3D3D00E5
:00000001FF
