:0A00000002002602013D8F99223212
:06000B00020009C2B4323C
:0C00130002000E02080000020C000000B9
:100023000201AC787FE4F6D8FD75810F02006D0202
:100033000218E493A3F8E493A34003F68001F208C3
:10004300DFF48029E493A3F85407240CC8C333C412
:10005300540F4420C8834004F456800146F6DFE47D
:10006300800B0102040810204080900016E47E01FA
:100073009360BCA3FF543F30E509541FFEE493A3F0
:1000830060010ECF54C025E060A840B8E493A3FA02
:10009300E493A3F8E493A3C8C582C8CAC583CAF08E
:1000A300A3C8C582C8CAC583CADFE9DEE780BEC26A
:1000B300D5EC30E709B2D5E4C39DFDE49CFCEE30FA
:1000C300E715B2D5E4C39FFFE49EFE1200E8C3E444
:1000D3009DFDE49CFC80031200E830D507C3E49F38
:1000E300FFE49EFE22BC000BBE0029EF8DF084FFCF
:1000F300ADF022E4CCF875F008EF2FFFEE33FEEC01
:1001030033FCEE9DEC984005FCEE9DFE0FD5F0E927
:10011300E4CEFD22EDF8F5F0EE8420D21CFEADF026
:1001230075F008EF2FFFED33FD4007985006D5F02B
:10013300F222C398FD0FD5F0EA22C0E0C0F0C0D090
:1001430075D000C000C004C005C006C007050DE59A
:100153000D7002050CD2B4AF0D120006E50BB4010D
:1001630014AE0CAF0D7C007D101200B2ED4C700587
:100173001202A18017E50BB40212AE0CAF0D7C0086
:100183007D101200B2ED4C7003120299E50D64204C
:10019300450C7004F50CF50DD007D006D005D0043E
:1001A300D000D0D0D0F0D0E032C0E0C0F0C0D075E5
:1001B300D000C007309902C299309850859990E5D4
:1001C30090643C7037050AE50A540764066008E545
:1001D3000A5407FFBF0704C2A3802FE50A75F00581
:1001E30084E5F06401600BE50A75F00584AFF0BFA8
:1001F3000204D2A48014D2A3C2A4800EE590700A94
:10020300FF120006C2B4C2A3C2A4C298D007D0D0C2
:10021300D0F0D0E032120270C2A2C2A3C2A5C2A41F
:10022300E590643C7037050AE50A540764066008E4
:10023300E50A5407FFBF0704C2A380E4E50A75F08B
:100243000584E5F06401600BE50A75F00584AFF001
:10025300BF0204D2A480C9D2A3C2A480C3E5907014
:10026300BFFF120006C2B4C2A3C2A480B3D2A8D2F5
:1002730088D2AAD28A750B01E4F59075CDFF75CBB0
:10028300FF75CCDC75CADC75C830D2AC759850D21A
:10029300CAD2AFC2B422D2A1C2A2750B0122C2A19B
:0602A300D2A2750B02223D
:00000001FF
